:020000040800F2
:100000000050002045080008610700086D0700083F
:1000100073070008790700087F0700080000000048
:10002000000000000000000000000000850700083C
:1000300091070008000000009D070008A9070008BC
:100040008D0800088D0800088D0800088D0800083C
:100050008D0800088D0800088D0800088D0800082C
:100060008D0800088D0800088D0800088D0800081C
:100070008D0800088D0800088D0800088D0800080C
:100080008D0800088D0800088D0800088D080008FC
:100090008D0800088D0800088D0800088D080008EC
:1000A0008D0800088D0800088D0800088D080008DC
:1000B000B50700088D0800088D0800088D080008A5
:1000C0008D0800088D0800088D0800088D080008BC
:1000D0008D0800088D080008F10700088D08000849
:1000E0008D0800088D0800088D0800080000000039
:1000F0000000000000000000000000000000000000
:0C01000000000000000000005FF808F1A3
:10010C0010B5054C237833B9044B13B10448AFF345
:10011C0000800123237010BD0C00002000000000A3
:10012C00D82B000808B5034B1BB103490348AFF3A8
:10013C00008008BD0000000010000020D82B000833
:10014C00034613F8012B002AFBD1181A013870470B
:10015C0080B487B000AFF860B9601346FB80002311
:10016C00FB750023BB7512E0BB7DFA6813441A784B
:10017C00BB7DB9680B441B789A4203D1FB7D0133DC
:10018C00FB7501E00023FB75BB7D0133BB75BB7DAB
:10019C009BB2FA889A42E7D8FB7D9BB2FA889A42C6
:1001AC0001D1012300E0002318461C37BD4680BC5A
:1001BC007047000080B500AF01225A495A48FFF73A
:1001CC00C7FF0346002B14D000221021574800F023
:1001DC0021FF01222021554800F01CFF0122402163
:1001EC00524800F017FF00228021504800F012FF07
:1001FC008AE001224E494C48FFF7AAFF0346002B28
:10020C0014D001221021494800F004FF00222021C3
:10021C00464800F0FFFE00224021444800F0FAFE60
:10022C0001228021414800F0F5FE6DE00122414998
:10023C003D48FFF78DFF0346002B14D00022102100
:10024C003A4800F0E7FE01222021384800F0E2FE97
:10025C0000224021354800F0DDFE01228021334888
:10026C0000F0D8FE50E0012233492F48FFF770FF11
:10027C000346002B14D0012210212C4800F0CAFE9A
:10028C0000222021294800F0C5FE012240212748E8
:10029C0000F0C0FE00228021244800F0BBFE33E0B9
:1002AC00012226492048FFF753FF0346002B14D0A8
:1002BC00002210211D4800F0ADFE002220211B4819
:1002CC0000F0A8FE00224021184800F0A3FE0022F6
:1002DC008021164800F09EFE16E01348FFF730FF11
:1002EC0003461A46104B134415491A460B461B88F5
:1002FC0013800D48FFF724FF03469AB24FF4FA73AC
:10030C000949104801F009FF32220021064802F089
:10031C0055FC0D4B00221A700C4B00221A7000BFBA
:10032C0080BD00BFF02B00082C000020000801400D
:10033C00F42B0008F82B0008FC2B0008002C0008FC
:10034C00042C0008A8000020290000202800002010
:10035C0080B500AF00F096FA00F02CF800F0E6F84B
:10036C0000F06EF800F0B8F8C82000F0EDFA0122A9
:10037C004FF480410B4800F04DFE4FF47A7000F0C2
:10038C00E3FA32220021084802F018FC074801F079
:10039C00C3FA074B1B68DA68054B1B6842F0200256
:1003AC00DA60FEE7001001402C0000206000002005
:1003BC00A800002080B590B000AF07F118032822E8
:1003CC000021184602F0FAFB3B1D00221A605A600D
:1003DC009A60DA601A610123BB614FF48033FB61D0
:1003EC0000233B620123BB6202237B634FF4803307
:1003FC00BB634FF4E013FB6307F11803184600F0DE
:10040C0021FE0346002B01D000F0F6F80F237B6091
:10041C000223BB600023FB604FF480633B6100232D
:10042C007B613B1D0221184601F08CF80346002B22
:10043C0001D000F0E1F800BF4037BD4680BD0000A0
:10044C0080B586B000AF07F1080300221A605A602D
:10045C009A60DA603B4600221A605A601D4B4FF0DE
:10046C0080421A601B4B00225A601A4B00229A6081
:10047C00184B4FF6FF72DA60164B00221A61154BBF
:10048C0000229A61134801F0F7F90346002B01D0C2
:10049C0000F0B2F84FF48053BB6007F10803194623
:1004AC000C4801F093FB0346002B01D000F0A4F89C
:1004BC0000233B6000237B603B461946054801F056
:1004CC006FFD0346002B01D000F096F800BF1837E3
:1004DC00BD4680BD6000002080B500AF114B124AB4
:1004EC001A60104B4FF416525A600E4B00229A6051
:1004FC000C4B0022DA600B4B00221A61094B0C22C8
:10050C005A61084B00229A61064B0022DA610548B9
:10051C0001F0B6FD0346002B01D000F06DF800BFD2
:10052C0080BD00BFA80000200044004080B588B00A
:10053C0000AF07F1100300221A605A609A60DA606B
:10054C002A4B9B69294A43F010039361274B9B6903
:10055C0003F01003FB60FB68244B9B69234A43F0B8
:10056C0020039361214B9B6903F02003BB60BB68A4
:10057C001E4B9B691D4A43F0040393611B4B9B6903
:10058C0003F004037B607B6801224FF40051184890
:10059C0000F040FD00224FF48041154800F03AFD78
:1005AC000022F021134800F035FD4FF4C0433B61AD
:1005BC0001237B610023BB610323FB6107F1100363
:1005CC0019460B4800F0A2FBF0233B6101237B6131
:1005DC000023BB610323FB6107F110031946054897
:1005EC0000F094FB00BF2037BD4680BD00100240D8
:1005FC00001001400008014080B400AF72B600BF8B
:10060C00FEE7000080B485B000AF154B9B69144A1F
:10061C0043F001039361124B9B6903F00103BB6030
:10062C00BB680F4BDB690E4A43F08053D3610C4B14
:10063C00DB6903F080537B607B680A4B5B68FB6073
:10064C00FB6823F0E063FB60FB6843F00073FB6026
:10065C00044AFB68536000BF1437BD4680BC70472A
:10066C00001002400000014080B584B000AF7860FB
:10067C007B681B68B3F1804F13D10C4BDB690B4AC1
:10068C0043F00103D361094BDB6903F00103FB6009
:10069C00FB68002200211C2000F051FA1C2000F005
:1006AC006AFA00BF1037BD4680BD00BF0010024083
:1006BC0080B588B000AF786007F1100300221A6093
:1006CC005A609A60DA607B681B681F4A934237D184
:1006DC001E4BDB691D4A43F40033D3611B4BDB69B2
:1006EC0003F40033FB60FB68184B9B69174A43F01B
:1006FC0004039361154B9B6903F00403BB60BB6857
:10070C0004233B6102237B610323FB6107F110038C
:10071C0019460F4800F0FAFA08233B6100237B616D
:10072C000023BB6107F110031946094800F0EEFAEB
:10073C0000220021262000F002FA262000F01BFAED
:10074C0000BF2037BD4680BD004400400010024071
:10075C000008014080B400AF00BFBD4680BC7047AC
:10076C0080B400AFFEE780B400AFFEE780B400AF0A
:10077C00FEE780B400AFFEE780B400AF00BFBD461B
:10078C0080BC704780B400AF00BFBD4680BC7047D2
:10079C0080B400AF00BFBD4680BC704780B500AFD1
:1007AC0000F0B6F800BF80BD80B500AF0A4B1B78D7
:1007BC00002B05D0094B1B780133DAB2074B1A70AA
:1007CC00064B1B78052B01D9FFF7F4FC044801F00C
:1007DC00F5F800BF80BD00BF2C00002028000020D1
:1007EC006000002080B500AF0D4B1B785A1CD1B2B5
:1007FC000B4A11701A460B4BD1180A2301220A48D6
:10080C0001F01DFD064B1B78013B064AD35C0A2BFD
:10081C0001D1FFF7CFFC044801F0B4FD00BF80BD4F
:10082C00290000202C000020A800002080B400AF7C
:10083C0000BFBD4680BC70470C480D490D4A0023D3
:10084C0002E0D458C4500433C4188C42F9D30A4A79
:10085C000A4C002301E013600432A242FBD3FFF7E1
:10086C00E5FF02F087F9FFF773FD704700000020E9
:10087C000C000020382C00080C000020F000002098
:10088C00FEE7000080B500AF084B1B68074A43F039
:10089C0010031360032000F047F90F2000F008F854
:1008AC00FFF7B0FE0023184680BD00BF00200240B9
:1008BC0080B582B000AF7860124B1A68124B1B786F
:1008CC0019464FF47A73B3FBF1F3B2FBF3F318460A
:1008DC0000F05FF90346002B01D001230EE07B688A
:1008EC000F2B0AD8002279684FF0FF3000F027F95F
:1008FC00064A7B681360002300E001231846083782
:10090C00BD4680BD0000002008000020040000202F
:10091C0080B400AF054B1B781A46054B1B6813447B
:10092C00034A136000BFBD4680BC7047080000201E
:10093C00EC00002080B400AF024B1B681846BD468B
:10094C0080BC7047EC00002080B584B000AF7860AC
:10095C00FFF7F0FFB8607B68FB60FB68B3F1FF3F0B
:10096C0005D00A4B1B781A46FB681344FB6000BF8A
:10097C00FFF7E0FF0246BB68D31AFA689A42F7D831
:10098C0000BF00BF1037BD4680BD00BF080000206F
:10099C0080B485B000AF78607B6803F00703FB6020
:1009AC000C4BDB68BB60BA684FF6FF031340BB60AF
:1009BC00FB681A02BB68134343F0BF6343F4003374
:1009CC00BB60044ABB68D36000BF1437BD4680BC13
:1009DC00704700BF00ED00E080B400AF044BDB6853
:1009EC001B0A03F007031846BD4680BC704700BFC6
:1009FC0000ED00E080B483B000AF0346FB7197F9C3
:100A0C000730002B0BDBFB7903F01F02064997F92B
:100A1C0007305B09012000FA02F241F8232000BFE5
:100A2C000C37BD4680BC704700E100E080B483B059
:100A3C0000AF03463960FB7197F90730002B0ADBD6
:100A4C003B68DAB20C4997F907301201D2B20B4469
:100A5C0083F800230AE03B68DAB20849FB7903F01B
:100A6C000F03043B1201D2B20B441A7600BF0C37B1
:100A7C00BD4680BC704700BF00E100E000ED00E027
:100A8C0080B489B000AFF860B9607A60FB6803F09D
:100A9C000703FB61FB69C3F10703042B28BF042385
:100AAC00BB61FB690433062B02D9FB69033B00E0F5
:100ABC0000237B614FF0FF32BB6902FA03F3DA4388
:100ACC00BB681A407B699A404FF0FF317B6901FA91
:100ADC0003F3D9437B680B40134318462437BD46B8
:100AEC0080BC704780B582B000AF78607B68013BFA
:100AFC00B3F1807F01D301230FE00A4A7B68013BED
:100B0C0053600F214FF0FF30FFF790FF054B002291
:100B1C009A60044B07221A60002318460837BD461A
:100B2C0080BD00BF10E000E080B582B000AF7860FF
:100B3C007868FFF72DFF00BF0837BD4680BD80B534
:100B4C0086B000AF0346B9607A60FB7300237B610B
:100B5C00FFF742FF78617A68B9687869FFF790FF10
:100B6C00024697F90F3011461846FFF75FFF00BF9A
:100B7C001837BD4680BD80B582B000AF0346FB710F
:100B8C0097F907301846FFF735FF00BF0837BD4609
:100B9C0080BD80B582B000AF78607868FFF7A2FFA7
:100BAC00034618460837BD4680BD80B485B000AFFB
:100BBC0078600023FB737B6893F82130022B08D0FC
:100BCC007B6804229A637B68002283F8202001232F
:100BDC0020E07B681B681A687B681B6822F00E0299
:100BEC001A607B681B681A687B681B6822F001021C
:100BFC001A607B681A6C7B68DB6B012101FA02F2CC
:100C0C005A607B68012283F821207B68002283F8DC
:100C1C002020FB7B18461437BD4680BC7047000073
:100C2C0080B584B000AF78600023FB737B6893F8C9
:100C3C002130022B05D07B6804229A630123FB73BD
:100C4C0051E07B681B681A687B681B6822F00E02F7
:100C5C001A607B681B681A687B681B6822F00102AB
:100C6C001A607B681B68224A934229D07B681B68F8
:100C7C00204A934222D07B681B681F4A93421AD0A9
:100C8C007B681B681D4A934212D07B681B681C4A08
:100C9C0093420AD07B681B681A4A934202D14FF4E4
:100CAC0080130EE04FF080730BE04FF4803308E0BC
:100CBC004FF4805305E04FF4807302E0102300E002
:100CCC000123114A53607B68012283F821207B6841
:100CDC00002283F820207B685B6B002B03D07B68A1
:100CEC005B6B78689847FB7B18461037BD4680BD18
:100CFC00080002401C000240300002404400024048
:100D0C00580002406C0002400000024080B48BB0DE
:100D1C0000AF7860396000237B6200233B6269E19D
:100D2C0001227B6A02FA03F3FB613B681B68FA69D8
:100D3C001340BB61BA69FB699A4240F058813B6829
:100D4C005B689A4A93425ED0984A934275D8984A07
:100D5C00934258D0964A93426FD8964A934252D0B7
:100D6C00944A934269D8944A93424CD0924A934203
:100D7C0063D8924A934246D0904A93425DD8122B44
:100D8C002AD8122B59D801A252F823F0130E0008BE
:100D9C00ED0D0008FF0D0008410E0008470E00087D
:100DAC00470E0008470E0008470E0008470E0008C3
:100DBC00470E0008470E0008470E0008470E0008B3
:100DCC00470E0008470E0008470E0008470E0008A3
:100DDC00F50D0008090E0008794A934213D02CE057
:100DEC003B68DB683B6229E03B68DB6804333B62B1
:100DFC0024E03B68DB6808333B621FE03B68DB6840
:100E0C000C333B621AE03B689B68002B02D1042335
:100E1C003B6213E03B689B68012B05D108233B62C6
:100E2C007B68FA691A6109E008233B627B68FA69FE
:100E3C005A6103E000233B6200E000BFBB69FF2B5B
:100E4C0001D87B6801E07B6804337B61BB69FF2BB5
:100E5C0002D87B6A9B0002E07B6A083B9B003B61EB
:100E6C007B691A680F213B6901FA03F3DB431A40D3
:100E7C00396A3B6901FA03F31A437B691A603B68D0
:100E8C005B6803F08053002B00F0B1804D4B9B69E5
:100E9C004C4A43F0010393614A4B9B6903F00103F5
:100EAC00BB60BB68484A7B6A9B08023352F823300C
:100EBC00FB607B6A03F003039B000F2202FA03F32F
:100ECC00DB43FA681340FB607B68404A934213D0C3
:100EDC007B683F4A93420DD07B683E4A934207D0D1
:100EEC007B683D4A934201D1032306E0042304E0CE
:100EFC00022302E0012300E000237A6A02F00302DD
:100F0C0092009340FA681343FB602F497B6A9B085D
:100F1C000233FA6841F823203B685B6803F48033A2
:100F2C00002B06D02D4B1A682C49BB6913430B6060
:100F3C0006E02A4B1A68BB69DB43284913400B6057
:100F4C003B685B6803F40033002B06D0234B5A68D4
:100F5C002249BB6913434B6006E0204B5A68BB69BE
:100F6C00DB431E4913404B603B685B6803F4801302
:100F7C00002B06D0194B9A681849BB6913438B6038
:100F8C0006E0164B9A68BB69DB43144913408B602F
:100F9C003B685B6803F40013002B21D00F4BDA681D
:100FAC000E49BB691343CB6021E000BF0000321037
:100FBC00000031100000221000002110000012105F
:100FCC000000111000100240000001400008014018
:100FDC00000C0140001001400014014000040140CD
:100FEC000B4BDA68BB69DB4309491340CB607B6A66
:100FFC0001337B623B681A687B6A22FA03F3002B8D
:10100C007FF48EAE00BF00BF2C37BD4680BC70474E
:10101C000004014080B483B000AF78600B467B8045
:10102C0013467B707B78002B03D07A887B681A611F
:10103C0003E07B881A047B681A6100BF0C37BD463D
:10104C0080BC704780B586B000AF78607B68002BA1
:10105C0001D101236CE27B681B6803F00103002BB8
:10106C0000F08780924B5B6803F00C03042B0CD0D0
:10107C008F4B5B6803F00C03082B12D18C4B5B6815
:10108C0003F48033B3F5803F0BD1894B1B6803F419
:10109C000033002B6CD07B685B68002B68D101237C
:1010AC0046E27B685B68B3F5803F06D1804B1B68DA
:1010BC007F4A43F4803313602EE07B685B68002B1F
:1010CC000CD17B4B1B687A4A23F480331360784B2A
:1010DC001B68774A23F4802313601DE07B685B68F0
:1010EC00B3F5A02F0CD1724B1B68714A43F48023CB
:1010FC0013606F4B1B686E4A43F4803313600BE034
:10110C006B4B1B686A4A23F480331360684B1B6873
:10111C00674A23F4802313607B685B68002B13D031
:10112C00FFF708FC386108E0FFF704FC02463B6956
:10113C00D31A642B01D90323FAE15D4B1B6803F42A
:10114C000033002BF0D014E0FFF7F4FB386108E01B
:10115C00FFF7F0FB02463B69D31A642B01D903233A
:10116C00E6E1534B1B6803F40033002BF0D100E095
:10117C0000BF7B681B6803F00203002B63D04C4B51
:10118C005B6803F00C03002B0BD0494B5B6803F03E
:10119C000C03082B1CD1464B5B6803F48033002BEB
:1011AC0016D1434B1B6803F00203002B05D07B6860
:1011BC001B69012B01D00123BAE13D4B1B6823F0C5
:1011CC00F8027B685B69DB00394913430B603AE03A
:1011DC007B681B69002B20D0364B01221A60FFF76D
:1011EC00A9FB386108E0FFF7A5FB02463B69D31A5F
:1011FC00022B01D903239BE12D4B1B6803F0020347
:10120C00002BF0D02A4B1B6823F0F8027B685B693B
:10121C00DB00274913430B6015E0264B00221A60B4
:10122C00FFF788FB386108E0FFF784FB02463B6957
:10123C00D31A022B01D903237AE11D4B1B6803F04F
:10124C000203002BF0D17B681B6803F00803002B12
:10125C003AD07B689B69002B19D0174B01221A607E
:10126C00FFF768FB386108E0FFF764FB02463B6957
:10127C00D31A022B01D903235AE10D4B5B6A03F0FD
:10128C000203002BF0D0012000F0D8FA1CE00A4B2E
:10129C0000221A60FFF74EFB38610FE0FFF74AFBA4
:1012AC0002463B69D31A022B08D9032340E100BF45
:1012BC000010024000004242800442429E4B5B6A96
:1012CC0003F00203002BE9D17B681B6803F00403D5
:1012DC00002B00F0A6800023FB75974BDB6903F015
:1012EC008053002B0DD1944BDB69934A43F0805310
:1012FC00D361914BDB6903F08053BB60BB68012366
:10130C00FB758E4B1B6803F48073002B18D18B4B31
:10131C001B688A4A43F480731360FFF70BFB386138
:10132C0008E0FFF707FB02463B69D31A642B01D98F
:10133C000323FDE0814B1B6803F48073002BF0D07A
:10134C007B68DB68012B06D17B4B1B6A7A4A43F026
:10135C00010313622DE07B68DB68002B0CD1764B0C
:10136C001B6A754A23F001031362734B1B6A724AA2
:10137C0023F0040313621CE07B68DB68052B0CD1A3
:10138C006D4B1B6A6C4A43F0040313626A4B1B6A75
:10139C00694A43F0010313620BE0674B1B6A664A10
:1013AC0023F001031362644B1B6A634A23F00403AA
:1013BC0013627B68DB68002B15D0FFF7BBFA386132
:1013CC000AE0FFF7B7FA02463B69D31A41F28832BA
:1013DC00934201D90323ABE0574B1B6A03F0020382
:1013EC00002BEED014E0FFF7A5FA38610AE0FFF706
:1013FC00A1FA02463B69D31A41F28832934201D9D1
:10140C00032395E04C4B1B6A03F00203002BEED137
:10141C00FB7D012B05D1484BDB69474A23F08053F8
:10142C00D3617B68DB69002B00F08180424B5B68E9
:10143C0003F00C03082B61D07B68DB69022B46D1CF
:10144C003F4B00221A60FFF775FA386108E0FFF78E
:10145C0071FA02463B69D31A022B01D9032367E0C8
:10146C00354B1B6803F00073002BF0D17B681B6AB3
:10147C00B3F5803F08D1304B5B6823F400327B68B6
:10148C009B682D4913434B602B4B5B6823F4741200
:10149C007B68196A7B685B6A0B43274913434B6073
:1014AC00274B01221A60FFF745FA386108E0FFF775
:1014BC0041FA02463B69D31A022B01D9032337E0C8
:1014CC001D4B1B6803F00073002BF0D02FE01C4B5E
:1014DC0000221A60FFF72EFA386108E0FFF72AFAAB
:1014EC0002463B69D31A022B01D9032320E0124B8D
:1014FC001B6803F00073002BF0D118E07B68DB69EC
:10150C00012B01D1012313E00B4B5B68FB60FB68E3
:10151C0003F480327B681B6A9A4206D1FB6803F4A1
:10152C0070127B685B6A9A4201D0012300E00023B1
:10153C0018461837BD4680BD0010024000700040B0
:10154C006000424280B584B000AF786039607B683F
:10155C00002B01D10123D0E06A4B1B6803F0070379
:10156C003A689A4210D9674B1B6823F00702654909
:10157C003B6813430B60634B1B6803F007033A682B
:10158C009A4201D00123B8E07B681B6803F0020388
:10159C00002B20D07B681B6803F00403002B05D0C4
:1015AC00594B5B68584A43F4E06353607B681B6893
:1015BC0003F00803002B05D0534B5B68524A43F4ED
:1015CC0060535360504B5B6823F0F0027B689B6860
:1015DC004D4913434B607B681B6803F00103002BE0
:1015EC0040D07B685B68012B07D1474B1B6803F429
:1015FC000033002B15D101237FE07B685B68022B45
:10160C0007D1414B1B6803F00073002B09D1012358
:10161C0073E03D4B1B6803F00203002B01D1012347
:10162C006BE0394B5B6823F003027B685B683649DF
:10163C0013434B60FFF77EF9F8600AE0FFF77AF985
:10164C000246FB68D31A41F28832934201D9032334
:10165C0053E02D4B5B6803F00C027B685B689B00CE
:10166C009A42EBD1274B1B6803F007033A689A4266
:10167C0010D2244B1B6823F0070222493B6813430A
:10168C000B60204B1B6803F007033A689A4201D0A9
:10169C00012332E07B681B6803F00403002B08D0A5
:1016AC00194B5B6823F4E0627B68DB6816491343D3
:1016BC004B607B681B6803F00803002B09D0124BAE
:1016CC005B6823F460527B681B69DB000E49134393
:1016DC004B6000F021F802460B4B5B681B0903F0D2
:1016EC000F030A49CB5C22FA03F3094A1360094B36
:1016FC001B681846FFF7DCF8002318461037BD4668
:10170C0080BD00BF0020024000100240182C0008D1
:10171C00000000200400002090B48AB000AF2A4BD7
:10172C003C1D0FCB84E80F0040F201233B800023CB
:10173C00FB610023BB6100237B6200237B610023E0
:10174C003B62224B5B68FB61FB6903F00C03042BCF
:10175C0002D0082B03D02DE01D4B3B622DE0FB6922
:10176C009B0C03F00F0307F12802134413F8243CDD
:10177C007B61FB6903F48033002B13D0134B5B6844
:10178C005B0C03F0010307F12802134413F8283C07
:10179C00BB617B690E4A02FB03F2BB69B2FBF3F33C
:1017AC007B6204E07B690B4A02FB03F37B627B6A7E
:1017BC003B6202E0064B3B6200BF3B6A184628378F
:1017CC00BD4690BC704700BF082C000800100240BA
:1017DC0000127A0000093D0080B400AF024B1B6878
:1017EC001846BD4680BC70470000002080B500AF95
:1017FC00FFF7F2FF0246054B5B681B0A03F0070379
:10180C000349CB5C22FA03F3184680BD001002405A
:10181C00282C000880B500AFFFF7DEFF0246054B11
:10182C005B68DB0A03F007030349CB5C22FA03F382
:10183C00184680BD00100240282C000880B485B0EA
:10184C0000AF78600A4B1B680A4AA2FB03235B0AB1
:10185C007A6802FB03F3FB6000BFFB685A1EFA6058
:10186C00002BF9D100BF00BF1437BD4680BC7047B8
:10187C0000000020D34D621080B582B000AF7860BC
:10188C007B68002B01D1012341E07B6893F83D304C
:10189C00DBB2002B06D17B68002283F83C207868F1
:1018AC00FEF7E2FE7B68022283F83D207B681A6813
:1018BC007B6804331946104600F07AFA7B680122E3
:1018CC0083F846207B68012283F83E207B68012246
:1018DC0083F83F207B68012283F840207B6801223B
:1018EC0083F841207B68012283F842207B68012227
:1018FC0083F843207B68012283F844207B68012213
:10190C0083F845207B68012283F83D20002318468C
:10191C000837BD4680BD000080B485B000AF78604C
:10192C007B6893F83D30DBB2012B01D001233AE008
:10193C007B68022283F83D207B681B68DA687B6831
:10194C001B6842F00102DA607B681B68184A9342FC
:10195C000ED07B681B68B3F1804F09D07B681B6885
:10196C00144A934204D07B681B68134A934211D1EA
:10197C007B681B689B6803F00703FB60FB68062B06
:10198C0010D07B681B681A687B681B6842F00102E8
:10199C001A6007E07B681B681A687B681B6842F05A
:1019AC0001021A60002318461437BD4680BC7047EC
:1019BC00002C0140000400400008004080B582B0BB
:1019CC0000AF78607B681B681B6903F00203022B75
:1019DC0022D17B681B68DB6803F00203022B1BD14E
:1019EC007B681B686FF002021A617B6801221A7710
:1019FC007B681B689B6903F00303002B03D078689A
:101A0C0000F0BAF905E0786800F0ADF9786800F0FC
:101A1C00BCF97B6800221A777B681B681B6903F092
:101A2C000403042B22D17B681B68DB6803F00403DE
:101A3C00042B1BD17B681B686FF004021A617B6856
:101A4C0002221A777B681B689B6903F44073002B96
:101A5C0003D0786800F090F905E0786800F083F91D
:101A6C00786800F092F97B6800221A777B681B6813
:101A7C001B6903F00803082B22D17B681B68DB6809
:101A8C0003F00803082B1BD17B681B686FF008025E
:101A9C001A617B6804221A777B681B68DB6903F088
:101AAC000303002B03D0786800F066F905E0786832
:101ABC0000F059F9786800F068F97B6800221A7711
:101ACC007B681B681B6903F01003102B22D17B6809
:101ADC001B68DB6803F01003102B1BD17B681B68A1
:101AEC006FF010021A617B6808221A777B681B68FA
:101AFC00DB6903F44073002B03D0786800F03CF9E9
:101B0C0005E0786800F02FF9786800F03EF97B6802
:101B1C0000221A777B681B681B6903F00103012BF9
:101B2C000ED17B681B68DB6803F00103012B07D126
:101B3C007B681B686FF001021A61786800F00AF983
:101B4C007B681B681B6903F08003802B0ED17B68BC
:101B5C001B68DB6803F08003802B07D17B681B6854
:101B6C006FF080021A61786800F081FA7B681B685C
:101B7C001B6903F04003402B0ED17B681B68DB68AC
:101B8C0003F04003402B07D17B681B686FF04002C9
:101B9C001A61786800F002F97B681B681B6903F016
:101BAC002003202B0ED17B681B68DB6803F020031D
:101BBC00202B07D17B681B686FF020021A617868B4
:101BCC0000F04CFA00BF0837BD4680BD80B584B02C
:101BDC0000AF786039607B6893F83C30012B01D101
:101BEC000223B3E07B68012283F83C207B6802224D
:101BFC0083F83D207B681B689B68FB60FB6823F0C7
:101C0C007703FB60FB6823F47F43FB607B681B68F6
:101C1C00FA689A603B681B68B3F5005F3ED0B3F579
:101C2C00005F00F28780B3F5805F00F08580B3F52C
:101C3C00805F7FD8702B1AD0702B7BD8602B50D044
:101C4C00602B77D8502B3CD0502B73D8402B58D0CE
:101C5C00402B6FD8302B64D0302B6BD8202B60D01E
:101C6C00202B67D8002B5CD0102B5AD062E07B68FD
:101C7C0018683B6899683B685A683B68DB6800F0F9
:101C8C0070F97B681B689B68FB60FB6843F077030B
:101C9C00FB607B681B68FA689A604EE07B6818688A
:101CAC003B6899683B685A683B68DB6800F059F9F7
:101CBC007B681B689A687B681B6842F480429A6058
:101CCC003BE07B6818683B6859683B68DB681A46E0
:101CDC0000F0D0F87B681B685021184600F027F9FB
:101CEC002BE07B6818683B6859683B68DB681A46D0
:101CFC0000F0EEF87B681B686021184600F017F9BD
:101D0C001BE07B6818683B6859683B68DB681A46BF
:101D1C0000F0B0F87B681B684021184600F007F90A
:101D2C000BE07B681A683B681B681946104600F08C
:101D3C00FEF802E000BF00E000BF7B68012283F8E0
:101D4C003D207B68002283F83C2000231846103786
:101D5C00BD4680BD80B483B000AF786000BF0C3747
:101D6C00BD4680BC704780B483B000AF786000BFC4
:101D7C000C37BD4680BC704780B483B000AF786030
:101D8C0000BF0C37BD4680BC704780B483B000AF39
:101D9C00786000BF0C37BD4680BC704780B483B000
:101DAC0000AF786000BF0C37BD4680BC70470000A8
:101DBC0080B485B000AF786039607B681B68FB60CD
:101DCC007B68294A93420BD07B68B3F1804F07D0D4
:101DDC007B68264A934203D07B68254A934208D1FC
:101DEC00FB6823F07003FB603B685B68FA68134385
:101DFC00FB607B681C4A93420BD07B68B3F1804F2D
:101E0C0007D07B68194A934203D07B68184A9342E7
:101E1C0008D1FB6823F44073FB603B68DB68FA680D
:101E2C001343FB60FB6823F080023B685B69134340
:101E3C00FB607B68FA681A603B689A687B68DA62B8
:101E4C003B681A687B689A627B68074A934203D1A5
:101E5C003B681A697B681A637B6801225A6100BF70
:101E6C001437BD4680BC7047002C01400004004074
:101E7C000008004080B487B000AFF860B9607A60A9
:101E8C00FB681B6A7B61FB681B6A23F00102FB6821
:101E9C001A62FB689B693B613B6923F0F0033B6171
:101EAC007B681B013A6913433B617B6923F00A038E
:101EBC007B617A69BB6813437B61FB683A699A6101
:101ECC00FB687A691A6200BF1C37BD4680BC70473C
:101EDC0080B487B000AFF860B9607A60FB681B6AA9
:101EEC0023F01002FB681A62FB689B697B61FB683C
:101EFC001B6A3B617B6923F470437B617B681B032A
:101F0C007A6913437B613B6923F0A0033B61BB6897
:101F1C001B013A6913433B61FB687A699A61FB6860
:101F2C003A691A6200BF1C37BD4680BC704780B44A
:101F3C0085B000AF786039607B689B68FB60FB689C
:101F4C0023F07003FB603A68FB68134343F007030C
:101F5C00FB607B68FA689A6000BF1437BD4680BC92
:101F6C00704780B487B000AFF860B9607A603B60AE
:101F7C00FB689B687B617B6923F47F437B613B68D7
:101F8C001A027B681A43BB6813437A6913437B615B
:101F9C00FB687A699A6000BF1C37BD4680BC7047ED
:101FAC0080B485B000AF786039607B6893F83C30C2
:101FBC00012B01D1022346E07B68012283F83C20EF
:101FCC007B68022283F83D207B681B685B68FB60A2
:101FDC007B681B689B68BB60FB6823F07003FB602D
:101FEC003B681B68FA681343FB607B681B68FA68E4
:101FFC005A607B681B68164A93420ED07B681B683C
:10200C00B3F1804F09D07B681B68124A934204D00D
:10201C007B681B68104A93420CD1BB6823F0800389
:10202C00BB603B685B68BA681343BB607B681B682A
:10203C00BA689A607B68012283F83D207B68002295
:10204C0083F83C20002318461437BD4680BC7047EB
:10205C00002C0140000400400008004080B483B014
:10206C0000AF786000BF0C37BD4680BC704780B4B1
:10207C0083B000AF786000BF0C37BD4680BC7047A2
:10208C0080B582B000AF78607B68002B01D1012352
:10209C003FE07B6893F83D30DBB2002B06D17B68C8
:1020AC00002283F83C207868FEF702FB7B68242230
:1020BC0083F83D207B681B68DA687B681B6822F418
:1020CC000052DA60786800F0C7FC7B681B681A69FC
:1020DC007B681B6822F490421A617B681B685A6902
:1020EC007B681B6822F02A025A617B681B68DA68DD
:1020FC007B681B6842F40052DA607B6800221A6429
:10210C007B68202283F83D207B68202283F83E20C8
:10211C00002318460837BD4680BD80B58AB002AF93
:10212C00F860B9603B601346FB8000237B61FB6861
:10213C0093F83D30DBB2202B7CD1BB68002B02D056
:10214C00FB88002B01D1012375E0FB6893F83C3030
:10215C00012B01D102236EE0FB68012283F83C20A5
:10216C00FB6800221A64FB68212283F83D20FEF7ED
:10217C00E1FB7861FB68FA889A84FB68FA88DA8458
:10218C00FB689B68B3F5805F08D1FB681B69002B6B
:10219C0004D10023FB61BB68BB6103E0BB68FB613E
:1021AC000023BB61FB68002283F83C202AE03B68DB
:1021BC0000937B6900228021F86800F0B3FA034693
:1021CC00002B01D0032336E0FB69002B0BD1BB693C
:1021DC001B881A46FB681B68C2F308025A60BB696D
:1021EC000233BB6107E0FB691A78FB681B685A6015
:1021FC00FB690133FB61FB68DB8C9BB2013B9AB240
:10220C00FB68DA84FB68DB8C9BB2002BCFD13B687C
:10221C0000937B6900224021F86800F083FA0346A2
:10222C00002B01D0032306E0FB68202283F83D201D
:10223C00002300E0022318462037BD4680BD80B540
:10224C008AB002AFF860B9603B601346FB80002394
:10225C007B61FB6893F83E30DBB2202B40F08C8026
:10226C00BB68002B02D0FB88002B01D1012384E03A
:10227C00FB6893F83C30012B01D102237DE0FB6815
:10228C00012283F83C20FB6800221A64FB6822229E
:10229C0083F83E20FB6800221A63FEF74BFB786143
:1022AC00FB68FA889A85FB68FA88DA85FB689B6874
:1022BC00B3F5805F08D1FB681B69002B04D10023A8
:1022CC00FB61BB68BB6103E0BB68FB610023BB61C6
:1022DC00FB68002283F83C2043E03B6800937B6959
:1022EC0000222021F86800F01DFA0346002B01D0D3
:1022FC00032342E0FB69002B0CD1FB681B685B6875
:10230C009BB2C3F308039AB2BB691A80BB69023350
:10231C00BB611FE0FB689B68B3F5805F07D0FB686F
:10232C009B68002B0AD1FB681B69002B06D1FB684C
:10233C001B685B68DAB2FB691A7008E0FB681B6803
:10234C005B68DBB203F07F03DAB2FB691A70FB69DE
:10235C000133FB61FB68DB8D9BB2013B9AB2FB68DE
:10236C00DA85FB68DB8D9BB2002BB6D1FB68202293
:10237C0083F83E20002300E0022318462037BD4698
:10238C0080BD000080B58AB000AF78607B681B68A8
:10239C001B687B627B681B68DB683B627B681B6825
:1023AC005B69FB610023BB6100237B617B6A03F0EB
:1023BC000F03BB61BB69002B0DD17B6A03F02003BB
:1023CC00002B08D03B6A03F02003002B03D0786865
:1023DC0000F099FA7BE1BB69002B00F0B180FB693E
:1023EC0003F00103002B05D13B6A03F49073002B1F
:1023FC0000F0A6807B6A03F00103002B0AD03B6A35
:10240C0003F48073002B05D07B681B6C43F0010236
:10241C007B681A647B6A03F00403002B0AD0FB6907
:10242C0003F00103002B05D07B681B6C43F0020208
:10243C007B681A647B6A03F00203002B0AD0FB69E9
:10244C0003F00103002B05D07B681B6C43F00402E6
:10245C007B681A647B6A03F00803002B0FD03B6A7D
:10246C0003F02003002B04D1FB6903F00103002BC4
:10247C0005D07B681B6C43F008027B681A647B6890
:10248C001B6C002B00F01E817B6A03F02003002BD9
:10249C0007D03B6A03F02003002B02D0786800F0D1
:1024AC0032FA7B681B685B6903F04003002B14BF96
:1024BC0001230023DBB27B617B681B6C03F00803F8
:1024CC00002B02D17B69002B31D0786800F074F9B5
:1024DC007B681B685B6903F04003002B23D07B688F
:1024EC001B685A697B681B6822F040025A617B6842
:1024FC009B6B002B13D07B689B6B764A5A637B6873
:10250C009B6B1846FEF78CFB0346002B16D07B68A2
:10251C009B6B5B6B7A68926B104698470EE0786801
:10252C0000F0ECF80AE0786800F0E8F806E078686B
:10253C0000F0E4F87B6800221A64C3E000BFC1E03D
:10254C007B681B6B012B40F0A1807B6A03F01003AE
:10255C00002B00F09B803B6A03F01003002B00F073
:10256C0095800023FB607B681B681B68FB607B68A5
:10257C001B685B68FB60FB687B681B685B6903F02E
:10258C004003002B4ED07B689B6B1B685B683B82C7
:10259C003B8A002B00F098807B689B8D3A8A9A428C
:1025AC0080F092807B683A8ADA857B689B6B9B69AA
:1025BC00202B2BD07B681B68DA687B681B6822F4A5
:1025CC008072DA607B681B685A697B681B6822F032
:1025DC0001025A617B681B685A697B681B6822F090
:1025EC0040025A617B68202283F83E207B680022DF
:1025FC001A637B681B68DA687B681B6822F0100220
:10260C00DA607B689B6B1846FEF7CFFA7B689A8D75
:10261C007B68DB8D9BB2D31A9BB21946786800F0AD
:10262C0076F851E07B689A8D7B68DB8D9BB2D31A70
:10263C007B827B68DB8D9BB2002B47D07B8A002B87
:10264C0044D07B681B68DA687B681B6822F4907244
:10265C00DA607B681B685A697B681B6822F0010290
:10266C005A617B68202283F83E207B6800221A6323
:10267C007B681B68DA687B681B6822F01002DA60E2
:10268C007B8A1946786800F042F81FE07B6A03F0F9
:10269C008003002B08D03B6A03F08003002B03D08F
:1026AC00786800F0C9F812E07B6A03F04003002B55
:1026BC000DD03B6A03F04003002B08D0786800F083
:1026CC000AF904E000BF02E000BF00E000BF2837B9
:1026DC00BD4680BD1D28000880B483B000AF786073
:1026EC0000BF0C37BD4680BC704780B483B000AFD0
:1026FC00786000BF0C37BD4680BC704780B483B097
:10270C0000AF786000BF0C37BD4680BC704780B40A
:10271C0083B000AF78600B467B8000BF0C37BD46A2
:10272C0080BC704780B584B000AFF860B9603B6086
:10273C001346FB712CE0BB69B3F1FF3F28D0BB699A
:10274C00002B07D0FEF7F6F802463B68D31ABA699D
:10275C009A421DD2FB681B68DA68FB681B6822F47E
:10276C00D072DA60FB681B685A69FB681B6822F040
:10277C0001025A61FB68202283F83D20FB6820226D
:10278C0083F83E20FB68002283F83C2003230FE0F3
:10279C00FB681B681A68BB681340BA689A420CBF86
:1027AC0001230023DBB21A46FB799A42C3D00023E3
:1027BC0018461037BD4680BD80B483B000AF78603A
:1027CC007B681B68DA687B681B6822F49072DA609D
:1027DC007B681B685A697B681B6822F001025A618E
:1027EC007B681B6B012B07D17B681B68DA687B68E5
:1027FC001B6822F01002DA607B68202283F83E20EE
:10280C007B6800221A6300BF0C37BD4680BC704742
:10281C0080B584B000AF78607B685B6AFB60FB6856
:10282C000022DA85FB680022DA84F868FFF766FF7D
:10283C0000BF1037BD4680BD80B485B000AF786056
:10284C007B6893F83D30DBB2212B3ED17B689B68D3
:10285C00B3F5805F14D17B681B69002B10D17B68AA
:10286C001B6AFB60FB681B881A467B681B68C2F3FB
:10287C0008025A607B681B6A9A1C7B681A6208E023
:10288C007B681B6A591C7A6811621A787B681B6812
:10289C005A607B68DB8C9BB2013B9BB27A68194611
:1028AC00D184002B0FD17B681B68DA687B681B68AE
:1028BC0022F08002DA607B681B68DA687B681B6830
:1028CC0042F04002DA60002300E00223184614377D
:1028DC00BD4680BC704780B582B000AF78607B6825
:1028EC001B68DA687B681B6822F04002DA607B6840
:1028FC00202283F83D207868FFF7EEFE002318466F
:10290C000837BD4680BD80B586B000AF78607B6867
:10291C0093F83E30DBB2222B40F099807B689B68A9
:10292C00B3F5805F17D17B681B69002B13D1002393
:10293C007B617B689B6A3B617B681B685B689BB2B5
:10294C00C3F308039AB23B691A807B689B6A9A1C92
:10295C007B689A6226E07B689B6A7B6100233B6103
:10296C007B689B68B3F5805F07D07B689B68002B06
:10297C000AD17B681B69002B06D17B681B685B68DE
:10298C00DAB27B691A7008E07B681B685B68DBB2A3
:10299C0003F07F03DAB27B691A707B689B6A5A1C5E
:1029AC007B689A627B68DB8D9BB2013B9BB27A6839
:1029BC001946D185002B48D17B681B68DA687B6887
:1029CC001B6822F02002DA607B681B68DA687B687F
:1029DC001B6822F48072DA607B681B685A697B681A
:1029EC001B6822F001025A617B68202283F83E208A
:1029FC007B681B6B012B23D17B6800221A637B68DD
:102A0C001B68DA687B681B6822F01002DA607B684E
:102A1C001B681B6803F01003102B0AD10023FB600A
:102A2C007B681B681B68FB607B681B685B68FB60D2
:102A3C00FB687B689B8D19467868FFF768FE02E09F
:102A4C007868FFF752FE002302E0002300E0022327
:102A5C0018461837BD4680BD80B584B000AF78608D
:102A6C007B681B681B6923F440517B68DA687B68C0
:102A7C001B680A431A617B689A687B681B691A4356
:102A8C007B685B691343BB607B681B68DB6823F462
:102A9C00B05323F00C037A681268B9680B43D36007
:102AAC007B681B685B6923F440717B689A697B685F
:102ABC001B680A435A617B681B682C4A934203D1FA
:102ACC00FEF7A8FEF86002E0FEF790FEF860FA68E8
:102ADC0013469B0013449A001A447B685B689B0066
:102AEC00B2FBF3F3224AA2FB03235B091901FA6838
:102AFC0013469B0013449A001A447B685B689B0046
:102B0C00B2FBF3F21A4BA3FB02035B09642000FB3C
:102B1C0003F3D31A1B013233154AA2FB03235B09BF
:102B2C0003F0F0031944FA6813469B0013449A000F
:102B3C001A447B685B689B00B2FBF3F20C4BA3FB63
:102B4C0002035B09642000FB03F3D31A1B0132332D
:102B5C00074AA2FB03235B0903F00F027B681B6887
:102B6C000A449A6000BF1037BD4680BD0038014052
:102B7C001F85EB5170B500260C4D0D4C641BA41039
:102B8C00A64209D100F022F800260A4D0A4C641B1B
:102B9C00A410A64205D170BD55F8043B98470136E8
:102BAC00EEE755F8043B98470136F2E7302C000865
:102BBC00302C0008302C0008342C0008034602444A
:102BCC00934200D1704703F8011BF9E7F8B500BF39
:102BDC00F8BC08BC9E467047F8B500BFF8BC08BCF2
:042BEC009E4670474A
:102BF000310000003200000033000000340000000B
:102C0000350000000A000000020304050607080959
:102C10000A0B0C0D0E0F1010000000000000000049
:102C20000102030406070809000000000102030472
:042C30003101000866
:042C34000D01000886
:0C2C38000024F400100000000100000067
:0400000508000845A2
:00000001FF
